{
  "contractName": "Authentication",
  "abi": [
    {
      "inputs": [],
      "stateMutability": "nonpayable",
      "type": "constructor"
    },
    {
      "inputs": [],
      "name": "numberOfUsers",
      "outputs": [
        {
          "internalType": "uint256",
          "name": "",
          "type": "uint256"
        }
      ],
      "stateMutability": "view",
      "type": "function",
      "constant": true
    },
    {
      "inputs": [
        {
          "internalType": "string",
          "name": "_hash",
          "type": "string"
        }
      ],
      "name": "register",
      "outputs": [],
      "stateMutability": "nonpayable",
      "type": "function"
    },
    {
      "inputs": [],
      "name": "getHash",
      "outputs": [
        {
          "internalType": "string",
          "name": "",
          "type": "string"
        }
      ],
      "stateMutability": "view",
      "type": "function",
      "constant": true
    },
    {
      "inputs": [
        {
          "internalType": "address",
          "name": "userAddress",
          "type": "address"
        }
      ],
      "name": "isUserRegistered",
      "outputs": [
        {
          "internalType": "bool",
          "name": "",
          "type": "bool"
        }
      ],
      "stateMutability": "view",
      "type": "function",
      "constant": true
    }
  ],
  "bytecode": "0x608060405234801561001057600080fd5b5060008081905550610b78806100276000396000f3fe608060405234801561001057600080fd5b506004361061004c5760003560e01c8063163f75221461005157806375ce46a714610081578063d13319c41461009f578063f2c298be146100bd575b600080fd5b61006b6004803603810190610066919061044e565b6100d9565b6040516100789190610496565b60405180910390f35b61008961012f565b60405161009691906104ca565b60405180910390f35b6100a7610135565b6040516100b49190610575565b60405180910390f35b6100d760048036038101906100d291906106cc565b610290565b005b6000600260008373ffffffffffffffffffffffffffffffffffffffff1673ffffffffffffffffffffffffffffffffffffffff16815260200190815260200160002060009054906101000a900460ff169050919050565b60005481565b6060600260003373ffffffffffffffffffffffffffffffffffffffff1673ffffffffffffffffffffffffffffffffffffffff16815260200190815260200160002060009054906101000a900460ff166101c3576040517f08c379a00000000000000000000000000000000000000000000000000000000081526004016101ba90610761565b60405180910390fd5b600160003373ffffffffffffffffffffffffffffffffffffffff1673ffffffffffffffffffffffffffffffffffffffff168152602001908152602001600020805461020d906107b0565b80601f0160208091040260200160405190810160405280929190818152602001828054610239906107b0565b80156102865780601f1061025b57610100808354040283529160200191610286565b820191906000526020600020905b81548152906001019060200180831161026957829003601f168201915b5050505050905090565b600260003373ffffffffffffffffffffffffffffffffffffffff1673ffffffffffffffffffffffffffffffffffffffff16815260200190815260200160002060009054906101000a900460ff161561031d576040517f08c379a00000000000000000000000000000000000000000000000000000000081526004016103149061082d565b60405180910390fd5b80600160003373ffffffffffffffffffffffffffffffffffffffff1673ffffffffffffffffffffffffffffffffffffffff168152602001908152602001600020908161036991906109f9565b506001600260003373ffffffffffffffffffffffffffffffffffffffff1673ffffffffffffffffffffffffffffffffffffffff16815260200190815260200160002060006101000a81548160ff0219169083151502179055506000808154809291906103d490610afa565b919050555050565b6000604051905090565b600080fd5b600080fd5b600073ffffffffffffffffffffffffffffffffffffffff82169050919050565b600061041b826103f0565b9050919050565b61042b81610410565b811461043657600080fd5b50565b60008135905061044881610422565b92915050565b600060208284031215610464576104636103e6565b5b600061047284828501610439565b91505092915050565b60008115159050919050565b6104908161047b565b82525050565b60006020820190506104ab6000830184610487565b92915050565b6000819050919050565b6104c4816104b1565b82525050565b60006020820190506104df60008301846104bb565b92915050565b600081519050919050565b600082825260208201905092915050565b60005b8381101561051f578082015181840152602081019050610504565b60008484015250505050565b6000601f19601f8301169050919050565b6000610547826104e5565b61055181856104f0565b9350610561818560208601610501565b61056a8161052b565b840191505092915050565b6000602082019050818103600083015261058f818461053c565b905092915050565b600080fd5b600080fd5b7f4e487b7100000000000000000000000000000000000000000000000000000000600052604160045260246000fd5b6105d98261052b565b810181811067ffffffffffffffff821117156105f8576105f76105a1565b5b80604052505050565b600061060b6103dc565b905061061782826105d0565b919050565b600067ffffffffffffffff821115610637576106366105a1565b5b6106408261052b565b9050602081019050919050565b82818337600083830152505050565b600061066f61066a8461061c565b610601565b90508281526020810184848401111561068b5761068a61059c565b5b61069684828561064d565b509392505050565b600082601f8301126106b3576106b2610597565b5b81356106c384826020860161065c565b91505092915050565b6000602082840312156106e2576106e16103e6565b5b600082013567ffffffffffffffff811115610700576106ff6103eb565b5b61070c8482850161069e565b91505092915050565b7f55736572206e6f74207265676973746572656400000000000000000000000000600082015250565b600061074b6013836104f0565b915061075682610715565b602082019050919050565b6000602082019050818103600083015261077a8161073e565b9050919050565b7f4e487b7100000000000000000000000000000000000000000000000000000000600052602260045260246000fd5b600060028204905060018216806107c857607f821691505b6020821081036107db576107da610781565b5b50919050565b7f5573657220616c72656164792072656769737465726564000000000000000000600082015250565b60006108176017836104f0565b9150610822826107e1565b602082019050919050565b600060208201905081810360008301526108468161080a565b9050919050565b60008190508160005260206000209050919050565b60006020601f8301049050919050565b600082821b905092915050565b6000600883026108af7fffffffffffffffffffffffffffffffffffffffffffffffffffffffffffffffff82610872565b6108b98683610872565b95508019841693508086168417925050509392505050565b6000819050919050565b60006108f66108f16108ec846104b1565b6108d1565b6104b1565b9050919050565b6000819050919050565b610910836108db565b61092461091c826108fd565b84845461087f565b825550505050565b600090565b61093961092c565b610944818484610907565b505050565b5b818110156109685761095d600082610931565b60018101905061094a565b5050565b601f8211156109ad5761097e8161084d565b61098784610862565b81016020851015610996578190505b6109aa6109a285610862565b830182610949565b50505b505050565b600082821c905092915050565b60006109d0600019846008026109b2565b1980831691505092915050565b60006109e983836109bf565b9150826002028217905092915050565b610a02826104e5565b67ffffffffffffffff811115610a1b57610a1a6105a1565b5b610a2582546107b0565b610a3082828561096c565b600060209050601f831160018114610a635760008415610a51578287015190505b610a5b85826109dd565b865550610ac3565b601f198416610a718661084d565b60005b82811015610a9957848901518255600182019150602085019450602081019050610a74565b86831015610ab65784890151610ab2601f8916826109bf565b8355505b6001600288020188555050505b505050505050565b7f4e487b7100000000000000000000000000000000000000000000000000000000600052601160045260246000fd5b6000610b05826104b1565b91507fffffffffffffffffffffffffffffffffffffffffffffffffffffffffffffffff8203610b3757610b36610acb565b5b60018201905091905056fea2646970667358221220d2c6e3fa149c57a77e3fe485de9fdf66f45ae2908b4f1bf6551cafa35ac0666664736f6c63430008150033",
  "immutableReferences": {},
  "source": "// SPDX-License-Identifier: MIT\npragma solidity 0.8.21;\n\ncontract Authentication {\n    uint256 public numberOfUsers;\n\n    mapping(address => string) private userHashes;    \n    mapping(address => bool) private isRegistered;\n\n    constructor() {\n        numberOfUsers = 0;\n    }\n\n    function register(string memory _hash) public {\n        require(!isRegistered[msg.sender], \"User already registered\");\n        \n        userHashes[msg.sender] = _hash;\n        isRegistered[msg.sender] = true;\n        \n        numberOfUsers++;\n    }\n\n    function getHash() public view returns (string memory) {\n        require(isRegistered[msg.sender], \"User not registered\");\n        return userHashes[msg.sender];\n    }\n\n    function isUserRegistered(address userAddress) public view returns (bool) {\n        return isRegistered[userAddress];\n    }\n}",
  "sourcePath": "/home/drunkencloud/Projects/blockchain_auth_bba/contracts/Authentication.sol",
  "compiler": {
    "name": "solc",
    "version": "0.8.21+commit.d9974bed.Emscripten.clang"
  },
  "schemaVersion": "3.4.16",
  "updatedAt": "2025-05-15T10:40:58.065Z",
  "networkType": "ethereum",
  "devdoc": {
    "kind": "dev",
    "methods": {},
    "version": 1
  },
  "userdoc": {
    "kind": "user",
    "methods": {},
    "version": 1
  }
}